{
  "contractName": "Purchase",
  "abi": [
    {
      "inputs": [],
      "payable": false,
      "stateMutability": "nonpayable",
      "type": "constructor"
    },
    {
      "anonymous": false,
      "inputs": [
        {
          "indexed": false,
          "internalType": "uint256",
          "name": "productId",
          "type": "uint256"
        },
        {
          "indexed": false,
          "internalType": "string",
          "name": "name",
          "type": "string"
        },
        {
          "indexed": false,
          "internalType": "uint256",
          "name": "price",
          "type": "uint256"
        },
        {
          "indexed": false,
          "internalType": "address payable",
          "name": "owner",
          "type": "address"
        },
        {
          "indexed": false,
          "internalType": "bool",
          "name": "purchased",
          "type": "bool"
        }
      ],
      "name": "ProductCreated",
      "type": "event"
    },
    {
      "anonymous": false,
      "inputs": [
        {
          "indexed": false,
          "internalType": "uint256",
          "name": "productId",
          "type": "uint256"
        },
        {
          "indexed": false,
          "internalType": "string",
          "name": "name",
          "type": "string"
        },
        {
          "indexed": false,
          "internalType": "uint256",
          "name": "price",
          "type": "uint256"
        },
        {
          "indexed": false,
          "internalType": "address payable",
          "name": "owner",
          "type": "address"
        },
        {
          "indexed": false,
          "internalType": "bool",
          "name": "purchased",
          "type": "bool"
        }
      ],
      "name": "ProductPurchased",
      "type": "event"
    },
    {
      "constant": true,
      "inputs": [
        {
          "internalType": "uint256",
          "name": "",
          "type": "uint256"
        }
      ],
      "name": "buyers",
      "outputs": [
        {
          "internalType": "address",
          "name": "",
          "type": "address"
        }
      ],
      "payable": false,
      "stateMutability": "view",
      "type": "function"
    },
    {
      "constant": true,
      "inputs": [],
      "name": "name",
      "outputs": [
        {
          "internalType": "string",
          "name": "",
          "type": "string"
        }
      ],
      "payable": false,
      "stateMutability": "view",
      "type": "function"
    },
    {
      "constant": true,
      "inputs": [
        {
          "internalType": "uint256",
          "name": "",
          "type": "uint256"
        }
      ],
      "name": "products",
      "outputs": [
        {
          "internalType": "uint256",
          "name": "productId",
          "type": "uint256"
        },
        {
          "internalType": "string",
          "name": "name",
          "type": "string"
        },
        {
          "internalType": "uint256",
          "name": "price",
          "type": "uint256"
        },
        {
          "internalType": "address payable",
          "name": "owner",
          "type": "address"
        },
        {
          "internalType": "bool",
          "name": "purchased",
          "type": "bool"
        }
      ],
      "payable": false,
      "stateMutability": "view",
      "type": "function"
    },
    {
      "constant": false,
      "inputs": [
        {
          "internalType": "uint256",
          "name": "_productId",
          "type": "uint256"
        }
      ],
      "name": "buy",
      "outputs": [
        {
          "internalType": "uint256",
          "name": "",
          "type": "uint256"
        }
      ],
      "payable": true,
      "stateMutability": "payable",
      "type": "function"
    },
    {
      "constant": true,
      "inputs": [],
      "name": "getPurchasers",
      "outputs": [
        {
          "internalType": "address[16]",
          "name": "",
          "type": "address[16]"
        }
      ],
      "payable": false,
      "stateMutability": "view",
      "type": "function"
    }
  ],
  "bytecode": "0x608060405234801561001057600080fd5b506040518060400160405280601781526020017f4d792063757465206c696c206d61726b6574706c6163650000000000000000008152506010908051906020019061005c929190610062565b50610107565b828054600181600116156101000203166002900490600052602060002090601f016020900481019282601f106100a357805160ff19168380011785556100d1565b828001600101855582156100d1579182015b828111156100d05782518255916020019190600101906100b5565b5b5090506100de91906100e2565b5090565b61010491905b808211156101005760008160009055506001016100e8565b5090565b90565b610a68806101166000396000f3fe60806040526004361061004a5760003560e01c80630409eb851461004f57806306fdde03146100a25780637acc0b2014610132578063d96a094a14610232578063f2aa821814610274575b600080fd5b34801561005b57600080fd5b506100646102ef565b6040518082601060200280838360005b8381101561008f578082015181840152602081019050610074565b5050505090500191505060405180910390f35b3480156100ae57600080fd5b506100b7610370565b6040518080602001828103825283818151815260200191508051906020019080838360005b838110156100f75780820151818401526020810190506100dc565b50505050905090810190601f1680156101245780820380516001836020036101000a031916815260200191505b509250505060405180910390f35b34801561013e57600080fd5b5061016b6004803603602081101561015557600080fd5b810190808035906020019092919050505061040e565b60405180868152602001806020018581526020018473ffffffffffffffffffffffffffffffffffffffff1673ffffffffffffffffffffffffffffffffffffffff16815260200183151515158152602001828103825286818151815260200191508051906020019080838360005b838110156101f35780820151818401526020810190506101d8565b50505050905090810190601f1680156102205780820380516001836020036101000a031916815260200191505b50965050505050505060405180910390f35b61025e6004803603602081101561024857600080fd5b8101908080359060200190929190505050610509565b6040518082815260200191505060405180910390f35b34801561028057600080fd5b506102ad6004803603602081101561029757600080fd5b81019080803590602001909291905050506108f1565b604051808273ffffffffffffffffffffffffffffffffffffffff1673ffffffffffffffffffffffffffffffffffffffff16815260200191505060405180910390f35b6102f7610924565b6000601080602002604051908101604052809291908260108015610366576020028201915b8160009054906101000a900473ffffffffffffffffffffffffffffffffffffffff1673ffffffffffffffffffffffffffffffffffffffff168152602001906001019080831161031c575b5050505050905090565b60108054600181600116156101000203166002900480601f0160208091040260200160405190810160405280929190818152602001828054600181600116156101000203166002900480156104065780601f106103db57610100808354040283529160200191610406565b820191906000526020600020905b8154815290600101906020018083116103e957829003601f168201915b505050505081565b6011602052806000526040600020600091509050806000015490806001018054600181600116156101000203166002900480601f0160208091040260200160405190810160405280929190818152602001828054600181600116156101000203166002900480156104c05780601f10610495576101008083540402835291602001916104c0565b820191906000526020600020905b8154815290600101906020018083116104a357829003601f168201915b5050505050908060020154908060030160009054906101000a900473ffffffffffffffffffffffffffffffffffffffff16908060030160149054906101000a900460ff16905085565b6000610513610947565b601160008481526020019081526020016000206040518060a001604052908160008201548152602001600182018054600181600116156101000203166002900480601f0160208091040260200160405190810160405280929190818152602001828054600181600116156101000203166002900480156105d45780601f106105a9576101008083540402835291602001916105d4565b820191906000526020600020905b8154815290600101906020018083116105b757829003601f168201915b50505050508152602001600282015481526020016003820160009054906101000a900473ffffffffffffffffffffffffffffffffffffffff1673ffffffffffffffffffffffffffffffffffffffff1673ffffffffffffffffffffffffffffffffffffffff1681526020016003820160149054906101000a900460ff1615151515815250509050600081606001519050816040015134101561067457600080fd5b81608001511561068357600080fd5b600084101580156106955750600f8411155b61069e57600080fd5b600182608001901515908115158152505033600085601081106106bd57fe5b0160006101000a81548173ffffffffffffffffffffffffffffffffffffffff021916908373ffffffffffffffffffffffffffffffffffffffff1602179055508073ffffffffffffffffffffffffffffffffffffffff166108fc349081150290604051600060405180830381858888f19350505050158015610742573d6000803e3d6000fd5b507f79558d0d7d4d900e2f15c4cc0a665f1acdbe415e44de900ecdd1e5bf12b56f4e848360200151846040015133600160405180868152602001806020018581526020018473ffffffffffffffffffffffffffffffffffffffff1673ffffffffffffffffffffffffffffffffffffffff16815260200183151515158152602001828103825286818151815260200191508051906020019080838360005b838110156107fa5780820151818401526020810190506107df565b50505050905090810190601f1680156108275780820380516001836020036101000a031916815260200191505b50965050505050505060405180910390a1816011600086815260200190815260200160002060008201518160000155602082015181600101908051906020019061087292919061098e565b506040820151816002015560608201518160030160006101000a81548173ffffffffffffffffffffffffffffffffffffffff021916908373ffffffffffffffffffffffffffffffffffffffff16021790555060808201518160030160146101000a81548160ff0219169083151502179055509050508392505050919050565b600081601081106108fe57fe5b016000915054906101000a900473ffffffffffffffffffffffffffffffffffffffff1681565b604051806102000160405280601090602082028038833980820191505090505090565b6040518060a00160405280600081526020016060815260200160008152602001600073ffffffffffffffffffffffffffffffffffffffff1681526020016000151581525090565b828054600181600116156101000203166002900490600052602060002090601f016020900481019282601f106109cf57805160ff19168380011785556109fd565b828001600101855582156109fd579182015b828111156109fc5782518255916020019190600101906109e1565b5b509050610a0a9190610a0e565b5090565b610a3091905b80821115610a2c576000816000905550600101610a14565b5090565b9056fea265627a7a72315820e200d8be5c22677fc1d21c6770442a37745ec02d06589dc31d1cca25986457fe64736f6c63430005100032",
  "source": "pragma solidity ^0.5.0;\n\ncontract Purchase{\n\taddress [16] public buyers;\n\tstring public name;\n\tmapping(uint => Product) public products;\n\n\tstruct Product {\n\t\tuint productId;\n\t\tstring name;\n\t\tuint price;\n\t\taddress payable owner;\n\t\tbool purchased;\n\n\t}\n\tevent ProductCreated(\n        uint productId,\n        string name,\n        uint price,\n        address payable owner,\n        bool purchased\n    );\n\n    event ProductPurchased(\n        uint productId,\n        string name,\n        uint price,\n        address payable owner,\n        bool purchased\n    );\n    constructor() public {\n    \tname = \"My cute lil marketplace\";\n    }\n    // function createProduct(string memory _name, uint _price, uint _productId) public {\n    // \trequire(bytes(_name).length > 0);\n    // \trequire(_price >0);\n    // \tproducts[_productId] = Product(_productId, _name, _price, msg.sender, false);\n    // \temit ProductCreated(_productId, _name, _price,msg.sender,false);\n    // } \n\n\tfunction buy(uint _productId) public payable returns(uint){\n\t\tProduct memory _product = products[_productId];\n\t\taddress payable _seller = _product.owner;\n\t\trequire(msg.value>= _product.price);\n\t\trequire(!_product.purchased);\n\t\t//check to see if oroduct id is in range of purchasers\n\t\trequire(_productId >= 0 && _productId <= 15);\n\t\t_product.purchased = true;\n\t\t//if in range, add purchaser to array by smart contract that called\n\t\tbuyers[_productId] = msg.sender;\n\n\t\taddress(_seller).transfer(msg.value);\n        // Trigger an event\n        emit ProductPurchased(_productId, _product.name, _product.price, msg.sender, true);\n\t\t//confirm\n\t\tproducts[_productId] = _product;\n\t\treturn _productId;\n\t}\n\n\tfunction getPurchasers() public view returns (address[16] memory) {\n\t\treturn buyers;\n\t}\n}",
  "sourcePath": "/Users/isabellalfairman/Desktop/Coursework/Masters USI/Il Semestre Autunnale 2021/Distributed Systems/DApps/finalshop/contracts/Purchase.sol",
  "compiler": {
    "name": "solc",
    "version": "0.5.16+commit.9c3226ce.Emscripten.clang"
  },
  "schemaVersion": "3.4.3",
  "updatedAt": "2021-12-15T10:56:52.411Z",
  "networkType": "ethereum",
  "devdoc": {
    "methods": {}
  },
  "userdoc": {
    "methods": {}
  }
}